:020000040800F2
:10000000981A0020C10A00084504000847040008A7
:100010004B0400084F0400085304000800000000CF
:10002000000000000000000000000000570400086D
:1000300059040008000000005B0400085D0400088B
:10004000DB0A0008DB0A0008DB0A0008DB0A0008FC
:10005000DB0A0008DB0A0008DB0A0008DB0A0008EC
:10006000DB0A0008DB0A0008DB0A00086708000852
:10007000DB0A0008DB0A0008DB0A0008DB0A0008CC
:10008000DB0A0008DB0A0008DB0A0008DB0A0008BC
:10009000C5280008DB0A0008DB0A0008DB0A0008A4
:1000A000DB0A0008DB0A0008DB0A0008DB0A00089C
:1000B000EF030008DB0A0008DB0A0008DB0A00087F
:1000C000DB0A0008DB0A0008DB0A0008DB0A00087C
:1000D000DB0A0008DB0A0008DB0A0008DB0A00086C
:1000E000DB0A0008DB0A0008B9280008DB0A000860
:1000F000DB0A0008DB0A0008DB0A0008DB0A00084C
:10010000DB0A0008DB0A0008DB0A0008DB0A00083B
:10011000DB0A0008DB0A0008DB0A0008DB0A00082B
:10012000DB0A0008DB0A0008DB0A0008DB0A00081B
:1001300000F002F800F0B0F80AA090E8000C824449
:100140008344AAF10107DA4501D100F0A5F8AFF226
:10015000090EBAE80F0013F0010F18BFFB1A43F0A5
:1001600001031847B05F0000D05F00000A444FF061
:10017000000C10F8013B13F0070408BF10F8014B06
:100180001D1108BF10F8015B641E05D010F8016B4B
:10019000641E01F8016BF9D113F0080F1EBF10F8AF
:1001A000014BAD1C0C1B09D16D1E58BF01F801CBD2
:1001B000FAD505E014F8016B01F8016B6D1EF9D555
:1001C0009142D6D37047000000230024002500266A
:1001D000103A28BF78C1FBD8520728BF30C148BFAA
:1001E0000B6070476E2904F07984702904F0BB8598
:1001F000662905F0C786652905F0C486672905F0DC
:10020000C1866129AFF3008003681B0A28BF41F053
:100210008001692904F02684642904F02384752967
:1002200004F020846F2904F04885782904F087853C
:10023000E92904F0E384E42904F0E084F52904F0DA
:10024000DD84EF2904F04585F82904F086850368EC
:10025000DB0928BF41F08001632905F00A81732979
:1002600005F00F81E32905F01A81F32905F01F81BC
:10027000002070471FB505F06BF904000020002135
:1002800005F06AFE401C60600020002105F04EFE73
:10029000E0601FBD10B510BD05F02DF91146FFF748
:1002A000E9FF00F08DF805F009FA03B4FFF7F2FF5B
:1002B00003BC05F051FA00000146002006E064226C
:1002C00002EB400221F81020421C90B2B0F5FA7FF8
:1002D000F5DB00200BE040F2E732A2EB4002643293
:1002E00093B200F5FA7221F81230421C90B2B0F5C8
:1002F000FA7FF0DB704730B589B004460D464FF405
:10030000C06000F0FDFB0121084600F090FF0121D4
:10031000052000F07FFF0520ADF8200018208DF8A3
:10032000230003208DF8220008A9414800F0B6FC04
:10033000601E80B2ADF81800681E80B2ADF81400DF
:100340000020ADF81A00ADF8160005A94FF0804066
:1003500001F098F86020ADF804000120ADF8060027
:100360006010ADF80A000220ADF80C0001A94007AA
:1003700001F0C5F801A94FF0804001F04FF91C20B1
:100380008DF8000001208DF8030002208DF8010097
:100390008DF80200684600F0B8FB01221146900774
:1003A00001F0E7FB0821C80601F0F8FC0821C806A7
:1003B00001F00AFD0121880701F0C0FB09B030BD42
:1003C0001C48FFF779FF00F011FB00F039F903F04A
:1003D00073FC00F0C3F93C214FF49660FFF78BFFEC
:1003E00004E0154800681549C1F8B401F9E710B5F3
:1003F0000121880701F06BFEC0B10E48104A128837
:1004000030F812104FF0804001F034FE0C480188A3
:100410000088401C0A4A1080B1F57A7F02DB002078
:10042000114608800121880701F062FE10BD00001E
:10043000000801405C010020080121420000224226
:1004400000000020704700BFFEE700BFFEE700BFCE
:10045000FEE700BFFEE77047704770477047000037
:100460000CB50020019000906C48006840F480308A
:100470006A49086000BF6948006800F400300090D5
:100480000198401C0190009818B90198B0F5A06F30
:10049000F1D16248006800F4003010B101200090F2
:1004A00001E0002000900098012843D15C480068DA
:1004B00040F010005A4908600846006820F0030028
:1004C00008600846006840F0020008605348406831
:1004D000524948600846406848600846406840F411
:1004E000806048600846406820F47C1048600846F8
:1004F000406840F4E81048600846006840F08070AA
:10050000086000BF4548006800F000700028F9D07E
:100510004248406820F0030040494860084640686F
:1005200040F00200486000BF3C48406800F00C000A
:100530000828F9D10CBD10B5FFF792FF10BD10B51A
:100540003648006840F001003449086008464068B9
:10055000344908403149486008460068324908403B
:100560002E4908600846006820F48020086008468C
:10057000406820F4FE0048604FF41F008860FFF7D9
:10058000DAFF4FF000602949086010BD10B5002166
:1005900000200022214B5B6803F00C0121B10429EB
:1005A00006D0082928D107E0214B224C236027E000
:1005B0001F4B204C236023E0184B5B6803F4701042
:1005C000164B5B6803F48032022303EB904022B9A0
:1005D000194B4343174C23600DE0104B5B6803F449
:1005E000003323B1144B4343124C236003E0104B00
:1005F0004343104C236003E00D4B0E4C236000BFBF
:1006000000BF064B5B68C3F303130C4CE15C094B62
:100610001B68CB40074C236010BD00000010024057
:10062000002002400000FFF8FFFFF6FE08ED00E0AA
:1006300000127A000400002000093D00080000209C
:1006400008B50121102000F0E5FD4FF40050ADF891
:10065000000010208DF8030003208DF80200694689
:100660001A4800F01BFB08BDF8B505460C461646B7
:10067000ADF8004010208DF8030003208DF8020033
:100680006946284600F00AFB32462146284600F01B
:10069000B6FBF8BDF8B506460C461546ADF8004069
:1006A0001DB928208DF8030002E048208DF80300D2
:1006B00003208DF802006946304600F0EFFA2A4622
:1006C0002146304600F09BFBF8BD000000100140C1
:1006D00010B50446B7480480022001F009FEB64870
:1006E000B6490860B6484860002088600846C46083
:1006F0000020086180204861400088618000C86156
:10070000002008624FF40050486200208862AD4823
:1007100001F094FD0121AB4801F0BBFD10BD70B5A7
:1007200004460D46601EA8498880681E0880002087
:10073000C8804880A54800F0A5FE6020A449088034
:10074000012048806010C880022008819F4800F086
:10075000B0FF01219D4801F0F1F970BD00B587B0EF
:100760004FF4C06000F0CCF90121084600F045FDCF
:1007700001214FF4017000F04DFD0121042000F033
:1007800056FD4FF4004000F0A9FC0220ADF818001F
:1007900000208DF81B0003208DF81A0006A98D4853
:1007A00000F07CFA002001908DF808008DF8090017
:1007B0004FF4202003900020049001208DF81400B5
:1007C00001A97D484C3801F076FE01217A484C3869
:1007D00001F0A8FE7B4801F08FFC0122022179483C
:1007E00001F063FD0B208DF8000001208DF8010061
:1007F0008DF802008DF80300684600F086F90121AB
:100800006D484C3801F083FE6B484C3801F0A1FE76
:1008100000BF69484C3801F0A1FE0028F9D16648B4
:100820004C3801F0A5FE00BF63484C3801F0A5FE2E
:100830000028F9D1012160484C3801F030FF002335
:10084000012211465C484C3801F0CDFE5F4801F0B2
:10085000A9F908215D4801F0C0FA00215B4801F0C8
:10086000B9FB07B000BD10B5022001F02DFD28B383
:100870000021564801F062F90021524801F009FDBB
:1008800000240CE04E4931F81410081202F0C4F8AC
:100890004B4911F8140002F0BFF8601C84B24548BF
:1008A00000888442EEDB022001F022FD4A48006805
:1008B00008B9012000E000204749086010BD2DE97B
:1008C000F04705460E4600246FE0285D4349087056
:1008D0004348007830B101280CD002281ED00328EC
:1008E00060D130E03D480078A52802D101203C4984
:1008F000087057E0394800785A2803D10220384957
:1009000008700AE035480078A52803D10120344951
:10091000087002E000203249087043E02F48017857
:10092000304802780078401C2E4B18702E488154B5
:1009300018460078062805DB0320294908700020A6
:10094000194608702EE025480078FF281ED1264859
:100950004178007801EB00201FFA80F82248C17826
:10096000807801EB00201FFA80F91F484179007957
:1009700001EB002087B23846FFF7AAFE4946404601
:10098000FFF7CDFE0020164908700AE013480078F2
:10099000A52803D101201249087002E00020104967
:1009A000087000BF00BF601C84B2B4428DDBBDE89C
:1009B000F0870000180000204C2401402C0D00207E
:1009C0002C09002008000240580D002000080040BB
:1009D000620D002000080140B40122421A000020EC
:1009E0001B000020220000201C00002010B56FF02A
:1009F000040000F0D4F82E4800682E49B0FBF1F056
:100A00002D4908700846007800EB4001C1EBC0108A
:100A10004FF6FF7101EAC0002849088010BD014669
:100A2000254A12784A434FF0E0235A6100229A6126
:100A30001A46126942F001021A6100BF4FF0E0222B
:100A4000106900F001021AB100F48032002AF5D0DA
:100A50004FF0E022126922F001024FF0E0231A6108
:100A600000229A6170470146144A12884A434FF0A7
:100A7000E0235A6100229A611A46126942F001028B
:100A80001A6100BF4FF0E022106900F001021AB1B4
:100A900000F48032002AF5D04FF0E022126922F0F3
:100AA00001024FF0E0231A6100229A6170470000B2
:100AB0000400002000127A002400002026000020FC
:100AC0000948804709480047FEE7FEE7FEE7FEE7E2
:100AD000FEE7FEE7FEE7FEE7FEE7FEE7044805491E
:100AE000054A064B704700003F0500083101000829
:100AF00098140020981A00209816002098160020BC
:100B000031490143314A1160704770B5002100231B
:100B10000F22C47804B32D4C246804F4E064C4F5B7
:100B2000E064210AC1F10403CA40447804FA03F1E5
:100B30008478144021430901254C0678A155047896
:100B400004F01F050124AC4005786D11AD0005F1DE
:100B5000E025C5F8004109E0047804F01F050124F0
:100B6000AC401C4D0678761145F8264070BD1A4AF7
:100B70000A400243154B1B1F1A60704739B1134AD4
:100B8000121D12680243114B1B1D1A6006E00F4A2A
:100B9000121D126882430D4B1B1D1A6070470428FA
:100BA00008D14FF0E021096941F004014FF0E02243
:100BB000116107E04FF0E021096921F004014FF0D5
:100BC000E0221161704700000000FA050CED00E022
:100BD00000E400E080E100E080FFFF1F10B5044664
:100BE000CC48844208D10121042000F02DFB0021D3
:100BF000042000F029FB46E0C748844208D10121C7
:100C0000082000F021FB0021082000F01DFB3AE045
:100C1000C248844208D10121102000F015FB0021B8
:100C2000102000F011FB2EE0BD48844208D10121C4
:100C3000202000F009FB0021202000F005FB22E02D
:100C4000B848844208D10121402000F0FDFA00217B
:100C5000402000F0F9FA16E0B348844208D101219F
:100C6000802000F0F1FA0021802000F0EDFA0AE087
:100C7000AE48844207D10121801500F0E5FA002139
:100C8000A01500F0E1FA10BD10B50121084600F0F2
:100C9000DBFA0021012000F0D7FA10BD2DE9F04168
:100CA000024600250026002000230024002791F89A
:100CB00003C00CF00F0591F803C00CF0100CBCF150
:100CC000000F03D091F802C04CEA050591F800C06E
:100CD000BCF1000F31D0146800202BE04FF0010C64
:100CE0000CFA00F3B1F800C00CEA03069E4220D1D2
:100CF00083004FF00F0C0CFA03F7BC4305FA03FC1A
:100D00004CEA040491F803C0BCF1280F06D14FF05F
:100D1000010C0CFA00FCC2F814C00AE091F803C000
:100D2000BCF1480F05D14FF0010C0CFA00FCC2F8E1
:100D300010C0401C0828D1D31460B1F800C0BCF129
:100D4000FF0F34DD546800202EE000F1080C4FF056
:100D5000010808FA0CF3B1F800C00CEA03069E4241
:100D600021D183004FF00F0C0CFA03F7BC4305FAB6
:100D700003FC4CEA040491F803C0BCF1280F05D130
:100D800000F1080C08FA0CF8C2F8148091F803C0BE
:100D9000BCF1480F07D100F1080C4FF0010808FA28
:100DA0000CF8C2F81080401C0828CED35460BDE86F
:100DB000F0814FF6FF710180022181700421C17022
:100DC00070470246002093680B400BB1012000E001
:100DD000002070470146886880B2704702460020B4
:100DE000D3680B400BB1012000E0002070470146A2
:100DF000C86880B2704701617047416170470AB1AD
:100E0000016100E041617047C16070474FF480327A
:100E10000A43826181618261826982697047024608
:100E20000020434B18684FF68073184040EA0210C8
:100E300008433F4B186070473E49C8617047F0B5A2
:100E40000A46002300240021002500F00046B6F1E8
:100E5000004F02D1364EF16901E0354E7168C0F3A2
:100E6000034583B200F44016B6F5401F08D121F0C7
:100E700070612F4E766826F070662D4F7E6012E00E
:100E800000F48016B6F5801F06D1032606FA05F495
:100E9000A14341F0706106E0460D360103FA06F603
:100EA000B14341F0706122B1460D360103FA06F6F6
:100EB000314300F00046B6F1004F02D11C4EF16103
:100EC00001E01B4E7160F0BD30B500228B071C0F96
:100ED0000F2303FA04F2164B08338C1053F8243016
:100EE0009343134C08348D1044F8253023468C105E
:100EF00053F824308C07240F00FA04F423430C4CDD
:100F000008348D1044F8253030BD0A49DC310860C2
:100F10007047000000080140000C01400010014033
:100F20000014014000180140001C01400020014055
:100F30000000014000002042DF48006840F001004E
:100F4000DD49086008464068DC490840DA494860E5
:100F500008460068DA490840D74908600846006832
:100F600020F4802008600846406820F4FE004860B5
:100F70004FF41F0088607047CF49096821F4803121
:100F8000CD4A11601146096821F480211160B0F545
:100F9000803F03D0B0F5802F0ED106E0C649096826
:100FA00041F48031C44A116007E0C349096841F443
:100FB000A021C14A116000E000BF00BF704710B51A
:100FC00001460022002300204A11012A02D1BA4C16
:100FD000236806E0022A02D1B74C236A01E0B64C2E
:100FE000636A01F01F02012494401C400CB10120EF
:100FF00000E0002010BD38B500200090002400253E
:1010000000BF3120FFF7DBFF05460098401C009031
:101010000098B0F5A06F01D0002DF2D03120FFF77D
:10102000CEFF08B1012400E00024204638BD01466F
:101030000020A14A106820F0F80040EAC1001060CA
:101040007047A04908607047024600209A4B5868D4
:1010500020F47C1042EA01031843974B5860704714
:1010600098490866704701460020934A506820F06E
:1010700003000843506070478F48406800F00C0040
:101080007047014600208C4A506820F0F000084369
:101090005060704701460020874A506820F4E060A5
:1010A00008435060704701460020834A506820F48E
:1010B000605040EAC1005060704729B17E4A527AC0
:1010C00002437D4B5A7204E07B4A527A82437A4B48
:1010D0005A7270477B49D83108607047014600203A
:1010E000754A506820F44040084350607047002122
:1010F000714A20321170704A82F82010012802D003
:1011000004280AD104E001216B4A2032117005E065
:101110000521694A2032117000E000BF00BF70470E
:101120006949086070476449096A0143624A11626B
:101130007047654944390860704730B50021002286
:10114000002400235C4D6D6805F00C0121B10429D9
:1011500005D0082923D105E05C4D056022E05B4DF8
:1011600005601FE0544D6D6805F47012524D6D68B6
:1011700005F48034022505EB92421CB9544D5543C9
:1011800005600BE04C4D6D6805F400351DB1504D08
:101190005543056002E04D4D5543056002E04B4D5F
:1011A000056000BF00BF444D6D6805F0F0010909FE
:1011B000484D6B5C0568DD4045603F4D6D6805F44A
:1011C000E061090A434D6B5C4568DD4085603A4D3E
:1011D0006D6805F46051C90A3E4D6B5C4568DD40A1
:1011E000C560354D6D6805F44041890B3A4D6B5C27
:1011F000C568B5FBF3F5056130BD29B12E4A5269CA
:1012000002432D4B5A6104E02B4A526982432A4B18
:101210005A61704729B1284A92690243264B9A6164
:1012200004E0254A92698243234B9A61704729B1B1
:10123000214AD2690243204BDA6104E01E4AD26996
:1012400082431D4BDA61704729B11B4AD2680243C1
:10125000194BDA6004E0184AD2688243164BDA6010
:10126000704729B1144A12690243134B1A6104E012
:10127000114A12698243104B1A6170471249403972
:10128000086070470F49C86470470B49C8717047C0
:101290000948406A40F0807007494862704701463B
:1012A0000020054A92680A400AB1012000E00020AF
:1012B0007047014988727047001002400000FFF833
:1012C000FFFFF6FE000042428004424200127A0014
:1012D00000093D00280000203800002010B5044619
:1012E000FE48844208D10121C014FFF7ADFF002160
:1012F000E014FFF7A9FFC4E0B4F1804F08D1012149
:101300000846FFF7AEFF00210120FFF7AAFFB8E073
:10131000F348844208D101210220FFF7A2FF0021F7
:101320000220FFF79EFFACE0EE48844208D1012185
:101330000420FFF796FF00210420FFF792FFA0E0B2
:10134000E948844208D101210820FFF78AFF0021E3
:101350000820FFF786FF94E0E448844208D1012189
:101360001020FFF77EFF00211020FFF77AFF88E0B2
:10137000DF48844208D101212020FFF772FF0021BD
:101380002020FFF76EFF7CE0DA48844208D101217B
:101390004014FFF759FF00216014FFF755FF70E07C
:1013A000D548844209D10121C804FFF74DFF00212F
:1013B0004FF40020FFF748FF63E0D048844209D192
:1013C00001210805FFF740FF00214FF48010FFF7CF
:1013D0003BFF56E0CA48844209D101214805FFF786
:1013E00033FF00214FF40010FFF72EFF49E0C548FE
:1013F000844208D101214020FFF733FF0021402023
:10140000FFF72FFF3DE0C048844208D10121802032
:10141000FFF727FF00218020FFF723FF31E0BB48C3
:10142000844208D101218015FFF71BFF0021A01580
:10143000FFF717FF25E0B648844209D101210804CF
:10144000FFF702FF00214FF48030FFF7FDFE18E0A8
:10145000B048844209D101214804FFF7F5FE00217C
:101460004FF40030FFF7F0FE0BE0AB48844208D1A8
:1014700001218804FFF7E8FE00214FF48020FFF7E8
:10148000E3FE10BD00220288944B98420ED0994B87
:1014900098420BD0B0F1804F08D0914B984205D0C4
:1014A000904B984202D0904B984204D14FF68F73E4
:1014B0001A404B881A438D4B984207D08C4B984268
:1014C00004D04FF6FF431A40CB881A4302808B8822
:1014D00083850B880385814B98420BD0854B9842BE
:1014E00008D08B4B984205D08A4B984202D08A4B49
:1014F000984201D10B7A038601238382704770B52D
:10150000002400220023058C4FF6FE76354005842A
:10151000028C8388048B4FF68F752C40B51E2C40AF
:101520000D882C43751E2A400D892A434D882A4375
:101530006A4DA8420BD06F4DA84208D0744DA84206
:1015400005D0744DA84202D0734DA84213D14FF676
:10155000F7752A404D892A434FF6FB752A408D883E
:101560002A434FF6FF652B404FF6FF552B408D89E0
:101570002B43CD892B4383800483CD8885860284C9
:1015800070BD70B5002400220023058C4FF6EF7665
:1015900035400584028C8388048B48F6FF752C4007
:1015A0004FF6FF452C400D884FF6FF7606EA0525DD
:1015B0002C434FF6DF752A400D8906EA05152A43AC
:1015C0004D8806EA05152A43444DA84202D0494DEC
:1015D000A8421DD14FF67F752A404D894FF6FF7600
:1015E00006EA05152A434FF6BF752A408D8806EA9C
:1015F00005152A434FF6FF352B404FF2FF752B4060
:101600008D8906EA85052B43CD8906EA85052B439E
:1016100083800483CD880587028470BD70B5002463
:1016200000220023058C4FF6FF6635400584028CAE
:101630008388848B4FF68F752C404FF6FC752C40B9
:101640000D882C434FF6FF552A400D894FF6FF7643
:1016500006EA05252A434D8806EA05252A431F4D3B
:10166000A84202D0234DA8421DD14FF2FF752A4057
:101670004D894FF6FF7606EA05252A434FF6FF35DA
:101680002A408D8806EA05252A434EF6FF752B4031
:101690004DF6FF752B408D8906EA05152B43CD8944
:1016A00006EA05152B4383808483CD8885870284D1
:1016B00070BD70B5002200230024058C4EF6FF7625
:1016C00035400584038C8488828B48F6FF752A4058
:1016D0004FF6FF452A400D8820E00000002C014015
:1016E0000004004000080040000C004000100040D2
:1016F0000014004000340140004C01400050014003
:101700000054014000180040001C00400020004030
:101710000040014000440140004801404FF6FF7680
:1017200006EA05252A434DF6FF752B400D8906EA8A
:1017300005352B434D8806EA05352B43FA4DA84263
:1017400002D0FA4DA84208D14BF6FF752C408D8986
:101750004FF6FF7606EA85152C4384808283CD8878
:10176000A0F84050038470BD828B4FF2FF331A40C3
:101770008283828B4FF6FF7303EA01231A4382832D
:101780007047F0B50C461546002200210026078C54
:101790004EF6FF7C07EA0C070784828B018C4FF61C
:1017A000FF7707EA043640F6FF473A404FF6FF77E7
:1017B00007EA05273A434FF6FF7707EA03373A432C
:1017C000D94FB8420ED0D94FB8420BD0B0F1804FAC
:1017D00008D0D74FB84205D0D64FB84202D0D64F26
:1017E000B84206D14DF6FF77394046F48057394369
:1017F00005E047F6FF57394044F480573943828368
:101800000184F0BD828B4FF6F3731A408283828B82
:101810000A4382837047F0B50C461546002200212A
:101820000026078C4FF6FF6C07EA0C070784828BB3
:10183000018C4FF6FF7707EA04264FF60C773A4003
:101840004FF6FF7707EA03172F433A43B64FB842E4
:101850000ED0B64FB8420BD0B0F1804F08D0B44F85
:10186000B84205D0B34FB84202D0B34FB84206D108
:101870004FF6FF57394046F48077394305E04FF281
:10188000FF57394044F48077394382830184F0BDA7
:10189000028B4FF2FF331A400283028B4FF6FF7325
:1018A00003EA01231A4302837047F0B50C4615463C
:1018B000002200210026078C4FF6EF7C07EA0C0778
:1018C0000784028B018C4FF6FF7707EA041640F677
:1018D000FF473A404FF6FF7707EA03373A434FF6A0
:1018E000FF7707EA05273A438F4FB8420ED08F4F54
:1018F000B8420BD0B0F1804F08D08D4FB84205D020
:101900008C4FB84202D08C4FB84206D14FF6DF77E9
:10191000394046F01007394305E04FF65F7739400C
:1019200044F01007394302830184F0BD028B4FF667
:10193000F3731A400283028B0A4302837047F0B5A7
:101940000C46154600220021068C4FF6FE773E40DD
:101950000684028B018C4FF60C7632407E1C06EA20
:1019600003162E433243704EB0420ED06F4EB0423B
:101970000BD0B0F1804F08D06D4EB04205D06D4E07
:10198000B04202D06C4EB04206D14FF6FD763140E7
:1019900044F00106314305E04FF6F576314044F05E
:1019A0000106314302830184F0BD70B505460C4643
:1019B0005D4885420ED05D4885420BD0B5F1804F21
:1019C00008D05B48854205D05A48854202D05A4823
:1019D000854200D100E000BF208850B92389A28849
:1019E00061882846FFF7ABFFE1882846FFF79EFF96
:1019F00025E0208804280AD12389A2886188284606
:101A0000FFF753FFE1882846FFF742FF17E02088E1
:101A100008280AD12389A28861882846FFF7FBFE9F
:101A2000E1882846FFF7EEFE09E02389A288618855
:101A30002846FFF7A6FEE1882846FFF795FE70BD11
:101A40002DE9F04105460C4600260127608808B9BB
:101A5000022600E00026A088012801D1022700E02C
:101A600001272088A0B92389A28861882846FFF72A
:101A700066FFE1882846FFF759FF23893A46314639
:101A80002846FFF712FFE1882846FFF701FF13E021
:101A90002389A28861882846FFF707FFE188284646
:101AA000FFF7F6FE23893A4631462846FFF747FFFF
:101AB000E1882846FFF73AFFBDE8F0810A884B88A5
:101AC0001A438B881A43CB881A430B891A434B89D4
:101AD0001A438B891A43A0F8442070474FF6FF71D0
:101AE000818000210180C180418001727047002106
:101AF000018041808180C180018141818181C181DA
:101B00007047002101804180012181800021C18036
:101B1000018170470021018041808180C180018165
:101B20004181818170470000002C01400034014058
:101B30000004004000080040000C004021B1028871
:101B400042F00102028004E002884FF6FE731A4060
:101B50000280704731B1B0F8442042F40042A0F84E
:101B6000442005E0B0F84420C2F30E02A0F844205F
:101B700070471AB183890B43838102E083898B43C9
:101B8000838170478182704741EA0203A0F84830A0
:101B900070471AB183890B43838102E083898B43A9
:101BA0008381704701894FF6F872114001817047B7
:101BB0000A46002101894FF68F73194011430181B4
:101BC000704730B504460D4629462046FFF7F0FF22
:101BD000208940F00700208130BD2DE9F041044606
:101BE0000D4616461F46602D06D13B460122314662
:101BF0002046FFF75AFE05E03B46012231462046CB
:101C0000FFF79DFE29462046FFF7D2FF208940F0CE
:101C100007002081BDE8F08130B50C460021018924
:101C2000C9B24FF6FF7505EA03251543254329433D
:101C3000018130BD2DE9F04105460E461746984614
:101C4000002443463A4631462846FFF7E5FF2C89F3
:101C50004FF6F870044044F007044FF68F700440CC
:101C600044F070042C81BDE8F081F0B504460D46C7
:101C700016461F463B46324629462046FFF7CCFF14
:101C8000208940F480402081F0BD01858282704728
:101C90000A46002101884FF68F73194011430180D5
:101CA0007047F0B50C4615461E4600210022002361
:101CB0000189028B038C4FF6F877394021434FF6A8
:101CC000FC473A4040F201173A434FF6DD773B407C
:101CD0004FF6FF7707EA06172F433B430181028344
:101CE0000384F0BD0A460021018B4FF68F73194023
:101CF0001143018370470A460021018B48F6FF73A8
:101D000019404FF6FF7303EA02231943018370471A
:101D10000A460021818B4FF68F731940114381834E
:101D200070470A460021818B48F6FF7319404FF631
:101D3000FF7303EA022319438183704721B10288AC
:101D400042F08002028004E002884FF67F731A405E
:101D50000280704721B1828842F00402828004E050
:101D600082884FF6FB731A408280704721B18288C7
:101D700042F00802828004E082884FF6F7731A402E
:101D80008280704721B1828842F00102828004E0A3
:101D900082884FF6FE731A40828070470A460021FF
:101DA000018B4FF6F77319401143018370470A46C0
:101DB0000021018B4FF2FF7319404FF6FF7303EAC6
:101DC00002231943018370470A460021818B4FF695
:101DD000F77319401143818370470A460021818BB4
:101DE0004FF2FF7319404FF6FF7303EA02231943C2
:101DF000818370470A460021018B4FF6FB7319401F
:101E00001143018370470A460021018B4FF6FF33CF
:101E100019404FF6FF7303EA022319430183704709
:101E20000A460021818B4FF6FB73194011438183D1
:101E300070470A460021818B4FF6FF3319404FF659
:101E4000FF7303EA02231943818370470A46002186
:101E5000018B4FF67F7319401143018370470A4687
:101E60000021018BC1F30E014FF6FF7303EA022339
:101E70001943018370470A460021818B4FF67F7317
:101E800019401143818370470A460021818BC1F3B9
:101E90000E014FF6FF7303EA022319438183704753
:101EA0000A460021018C4FF6FD731940114301844D
:101EB00070470A460021018C4FF6F7731940114311
:101EC000018470470A460021018C4FF6DF731940E8
:101ED0004FF6FF7303EA02131943018470470A4661
:101EE0000021018C4FF67F7319404FF6FF7303EA10
:101EF00002131943018470470A460021018C4FF6F2
:101F0000FF5319404FF6FF7303EA0223194301847C
:101F100070470A460021018C4FF2FF7319404FF6BB
:101F2000FF7303EA02231943018470470A46002124
:101F3000018C4DF6FF7319404FF6FF7303EA02332D
:101F400019430184704730B5002301248C40A3B2AB
:101F5000048C9C430484048C02FA01F5ADB22C433A
:101F6000048430BD30B5002304248C40A3B2048C1B
:101F70009C430484048C02FA01F5ADB22C43048422
:101F800030BD70B5034600200024184618300125E6
:101F90008D40ACB21D8CA5431D8409B1082909D11F
:101FA00000EB6100056825F07005056005681543C4
:101FB00005600EE00D1FC5F34E052844056825F4A5
:101FC000E045056005684FF6FF7606EA02263543D0
:101FD000056070BD21B1028842F00202028004E077
:101FE00002884FF6FD731A400280704721B10288C3
:101FF00042F00402028004E002884FF6FB731A40AC
:102000000280704721B1828842F08002828004E021
:1020100082884FF67F731A408280704702884FF69D
:10202000F7731A40028002880A4302807047828850
:102030004FF68F731A40828082880A4382807047ED
:1020400002894FF6F8731A40028102890A4302811D
:10205000704702894FF67F731A40028102890A4352
:1020600002817047818470478185704781867047FF
:102070000187704781877047A0F840107047028839
:102080004FF6FF431A40028002880A4302807047DD
:102090000146888E70470146088F70470146888F39
:1020A00070470146B1F8400070470146888C704780
:1020B0000146088D704702460020138A0B400BB181
:1020C000012000E000207047CA430282704730B50B
:1020D0000246002000230024158A05EA01039589A1
:1020E00005EA010413B10CB1012000E0002030BD6D
:1020F000CA4302827047000001684FF6FE72114029
:1021000001600021016041608160C1608D498842A9
:1021100008D18C490839496841F00F01894A083AC9
:1021200051608AE087491431884208D185490839CD
:10213000496841F0F001834A083A51607DE08149E5
:102140002831884208D17F490839496841F47061D3
:102150007C4A083A516070E07A493C31884208D1A3
:1021600078490839496841F47041764A083A516023
:1021700063E074495031884208D17249083949688E
:1021800041F470216F4A083A516056E06D4964315C
:10219000884208D16B490839496841F47001694A9D
:1021A000083A516049E067497831884208D1654969
:1021B0000839496841F07061624A083A51603CE070
:1021C0006149884206D1011F096841F00F01021FD1
:1021D000116032E05C491431884208D15A49091F24
:1021E000096841F0F001584A121F116025E0564974
:1021F0002831884208D15449091F096841F47061A7
:10220000514A121F116018E04F493C31884208D1F1
:102210004D49091F096841F470414B4A121F116072
:102220000BE049495031884207D14749091F0968E5
:1022300041F47021444A121F1160704710B500220A
:10224000026847F6F0739A430C6A8B6823430C6963
:1022500023434C6923438C692343CC6923434C6A51
:1022600023438C6A23431A430260CB6843600B68A4
:1022700083604B68C36010BD0021016041608160D4
:10228000C160016141618161C1610162416281623C
:10229000704721B1026842F00102026004E0026866
:1022A0004FF6FE731A40026070471AB103680B4381
:1022B000036002E003688B4303607047416070472E
:1022C0000146486880B2704701460020002201F0B4
:1022D00080531BB11C4B083B1A6802E0194B083BAA
:1022E0001A6802EA01030BB1012000E000207047E8
:1022F00000F0805119B11449091F086002E011492A
:1023000008394860704701460020002201F08053E0
:102310001BB10D4B083B1A6802E00A4B083B1A68D8
:1023200002EA01030BB1012000E00020704700F039
:10233000805119B10449091F086002E001490839B8
:1023400048607047080002400804024000204449E9
:102350000860091D0860091D0860091D08604148E2
:102360003F4914310860704700213D498279002AB5
:102370003AD00A46126803689A430B461A600A1D4F
:10238000126803689A430B1D1A60027911440A68A7
:1023900003681A430A60324A0832126803689A4393
:1023A0002F4B08331A601A1D126803689A432C4B8E
:1023B0000C331A604279102A0ED11A1F1268036872
:1023C0001A43274B08331A601A1D126803681A4310
:1023D000234B0C331A600DE02149427911440A68FD
:1023E00003681A430A6005E0027911440A68036829
:1023F0009A430A6070470021016001710C2141710C
:102400000021817170471649103109680143144A4F
:1024100010321160704701460020114A14321268D0
:102420000A400AB1012000E0002070470C49143135
:1024300008607047014600200022094B1B6803EA30
:102440000102074B14331B680B4013B10AB1012082
:1024500000E0002070470249143108607047000016
:1024600000040140FFFF0F0010B50446FA48844203
:1024700008D101214015FEF7E7FE00216015FEF7A7
:10248000E3FE17E0F548844208D101210015FEF76C
:10249000DBFE00212015FEF7D7FE0BE0F04884425A
:1024A00008D10121C803FEF7CFFE00214FF4004000
:1024B000FEF7CAFE10BD30B502460020002350686A
:1024C000E84C20400D790C6844EA05242043506014
:1024D0009068E54C2040D1E902542C434D7944EA00
:1024E000450420439060D06A20F470000C7C641E88
:1024F000E4B2234340EA0350D06230BD00210160C2
:10250000017141718160C16001210174704721B185
:10251000826842F00102826003E0826822F00102D8
:102520008260704721B1826842F48072826003E069
:10253000826822F480728260704710B50023CBB2AB
:102540001AB144681C43446002E044689C43446000
:1025500010BD816841F0080181607047014600208C
:102560008A6802F008020AB1012000E000207047EA
:10257000816841F0040181607047014600208A684B
:1025800002F004020AB1012000E00020704721B1EE
:10259000826842F4A002826003E0826822F4A00212
:1025A00082607047014600208A6802F480020AB106
:1025B000012000E00020704710B50A4600210023EA
:1025C000416821F46041531E41EA4331416010BD2E
:1025D00021B1426842F40062426003E0426822F4A2
:1025E000006242607047F0B504460D4600200021AD
:1025F000092D11DDE068A5F10A0606EB460707265E
:1026000006FA07F18843A5F10A0606EB460603FA27
:1026100006F10843E0600CE0206905EB450707265A
:1026200006FA07F1884305EB450603FA06F108436D
:102630002061072A0FDA606B561E06EB86071F26FD
:1026400006FA07F18843561E06EB860605FA06F1E0
:102650000843606322E00D2A0FDA206BD61F06EBD9
:1026600086071F2606FA07F18843D61F06EB860663
:1026700005FA06F10843206310E0E06AA2F10D06B6
:1026800006EB86071F2606FA07F18843A2F10D061E
:1026900006EB860605FA06F10843E062F0BD21B1BB
:1026A000826842F48012826003E0826822F4801221
:1026B000826070470146C86C80B2704766484C30F3
:1026C0000068704721B1426842F48062426003E0D2
:1026D000426822F480624260704721B1426842F44D
:1026E0008052426003E0426822F4805242607047A8
:1026F0000A460021816821F4E0411143816070475E
:1027000021B1826842F40042826003E0826822F4D0
:1027100000428260704721B1826842F402128260F6
:1027200003E0826822F402128260704701460020B2
:102730008A6802F400120AB1012000E0002070470C
:10274000F0B504461546002000220026092911DDB7
:10275000E068A1F10A0707EB470C072707FA0CF21C
:102760009043A1F10A0707EB470703FA07F210436A
:10277000E0600CE0206901EB410C072707FA0CF23E
:10278000904301EB410703FA07F210432061A06B6D
:10279000C0F30156EF1C06F1010CA7EB0C0707EB89
:1027A000870C1F2707FA0CF29043EF1C06F1010C6F
:1027B000A7EB0C0707EB870701FA07F21043A063AA
:1027C000F0BD10B50A4600210023816B21F44011B1
:1027D000531E41EA0351816310BD08B500230093E5
:1027E0000090009B0B440093009B1A6008BD08B545
:1027F000024600200090009201F12800009B18443E
:1028000000900098006880B208BD0A460021416827
:10281000164B194011434160704741628262704714
:102820000A460021416821F01F01114341607047B1
:1028300040B109490831096841F40001064A0832EB
:10284000116007E004490831096821F40001024AD7
:102850000832116070470000002401400028014048
:10286000003C0140FFFEF0FFFDF7F1FFFFFD3FFFE1
:102870000246002013680B400BB1012000E000204D
:102880007047CA430260704770B5024600200023BB
:1028900000240B125568CEB205EA060415681D40E7
:1028A00015B10CB1012000E0002070BD00220A1219
:1028B000D34303607047000010B54FF48020FFF74A
:1028C000CAFD10BD10B500F05BF910BD10B50020B9
:1028D000FEF700FC0121C805FEF7A9FC10BD03208E
:1028E0006649086070476648817A19B10521634AD4
:1028F000116002E00121614A116070470EB54FF48A
:102900008020FFF7A8FD4FF48020009008208DF86C
:10291000050001208DF806006846FFF725FD14200C
:102920008DF8080001208DF8090000208DF80A00BC
:1029300001208DF80B0002A8FEF7E7F82A208DF899
:10294000080000208DF8090002A8FEF7DEF80EBD91
:10295000704710B5044601210420FEF75BFC3CB132
:102960004848006880B220F002004649086014E040
:102970004448006880B240F0020042490860424882
:10298000006820F47F20404908600846006840F451
:102990004C30086000203D49086010BD30B50B4642
:1029A000002100BF16E00A24B4EB107F05D93024C3
:1029B00004EB107403F8114005E0412404EB10749B
:1029C0000A3C03F81140000100254C00641C1D5511
:1029D0004C1CE1B29142E6DB30BD70B52C48046876
:1029E000001D0568001D0668344454B108222949B9
:1029F0002046FFF7D3FF0422264910312846FFF76F
:102A0000CDFF70BD00202449A1F8B204A1F8B004A4
:102A100022490880012070471F49B1F8B0141E4AAE
:102A200050541146B1F8B014491CA2F8B014114624
:102A3000B1F8B014B1F5966F02D10021A2F8B0142C
:102A400070470FB438B505A800901548009A04994E
:102A500001F072FF00200090114801F07FFF85B265
:102A6000002405E00E49085DFFF7D6FF601C84B224
:102A7000AC42F7DB38BC5DF814FB000034010020E9
:102A800018140020405C004004080140B0012142BD
:102A9000E8F7FF1F40000020720D00203C000020DE
:102AA0002612002070B53248B0F8B2043049B1F8AF
:102AB000B014884200D170BD2D48B0F8B2042C4942
:102AC000B1F8B014884208DA2948B0F8B0042849AF
:102AD000B1F8B214401A84B205E02548B0F8B20447
:102AE000C0F5966084B2402C00DD40242048B0F848
:102AF000B254B0F8B20420441D49A1F8B20408460B
:102B0000B0F8B204B0F5966F02DB0020A1F8B20471
:102B1000174948192246C02101F09CFA214601209C
:102B200001F0F9FC012001F07DFB00BFC3E710B507
:102B30001049032001F0E5FE84B221460D48FDF75F
:102B4000BEFE032001F086FB10BD10B50A480068E8
:102B500005280CD1094801680068401C074A10602C
:102B6000052904D1002011460860FFF79BFF10BD26
:102B7000720D0020B6130020340100205800002000
:102B800010B588B000246948006869490880084683
:102B9000008800F4007067490988084050B14FF67A
:102BA000FF506249086064480078401C6249087020
:102BB000FFF7CBFF5E48008800F400405D490988BC
:102BC000084008B101F0A8F85948008800F4806076
:102BD00058490988084030B14FF6FF305349086022
:102BE0005649486880475248008800F400505149CF
:102BF0000988084018B14DF6FF704C4908604C48F0
:102C0000008800F480504B490988084030B14EF6E6
:102C1000FF7046490860002000F039FA44480088F7
:102C200000F4006043490988084060B144480078D6
:102C300010B100F0D6F902E0022000F028FA4FF2BD
:102C4000FF703A4908603A48008800F480703949BA
:102C500009880840002866D04FF6FF6033490860B5
:102C6000081D006800F40040002856D03548006870
:102C7000401C3449086008460068032850D92B4896
:102C8000001F006800F00800002849D12748001FF5
:102C9000006880B22C490860002408E02B4901EB51
:102CA0008400D0F8000C80B24DF82400641C082C7D
:102CB000F4D32548006840F0010023490860084625
:102CC000006880B21949091F08601F48006820F099
:102CD00001001D4908600846006880B21349091FB9
:102CE000086000BF1148006800F480600028F9D037
:102CF0004FF6FF300D490860002408E05DF824001D
:102D000080B2124A02EB8401C1F8000C641C082C4A
:102D1000F4D300200B49086002E000200949086054
:102D2000072000F0B4F908B010BD0000445C00407A
:102D30005C000020520100205E000020B000002056
:102D40003801002060000020640000200050004096
:102D500010B5FFF742FE002083490968887200F031
:102D600017F901F0A9FD00208049086010BD10B5D9
:102D700000207D49096888727D48C0797A490968D0
:102D80004872002078490968C87201F0AFF94FF421
:102D90000071002001F0C4F91021002001F0D9F9E0
:102DA0004021002001F093FB8021002001F083FBF3
:102DB000002001F08BFA6F4890F82C10002001F0F1
:102DC000CCFB002001F046FA0021012001F0A8F917
:102DD000C021012001F06FFB2021012001F0B9F991
:102DE0000021012001F0D3F94FF4C061022001F06D
:102DF00097F94FF48071022001F05DFB0021022061
:102E000001F0C5F92021022001F0A3F900210320DF
:102E100001F086F94FF48871032001F058FB40213E
:102E2000032001F09AFB4FF44051032001F0AFF969
:102E30000021032001F08DF9002000F0AEFE0120FA
:102E40004A49086010BD4C48817A11B10521474AB2
:102E500011607047042045490860704710B5474825
:102E60000078202804D1FFF7CDFD002043490870E9
:102E700010BD7047014629B908203B4A12681082EC
:102E8000002070473E48FCE7014629B90820364A31
:102E900012681082002070473948FCE770B504467C
:102EA0000025212C09D130480068007800F07F000F
:102EB000212810D1AFF22F050DE0202C0BD12A488C
:102EC0000068007800F07F00212801D1AFF25B0597
:102ED00020202A4908700DB9022070BD22480068E0
:102EE000856100212048006841820020A847002019
:102EF000F3E701461C480068007800F07F002128B5
:102F000007D1022901D100207047222901D10020D8
:102F1000FAE70220F8E710B504461A49204600F007
:102F200032FB10BD10B504461749204600F02BFBBC
:102F300010BD70B505460C480068C478042C01DD4E
:102F4000002070BD114800EBC401284600F01BFBB7
:102F5000F7E70246002901DD02207047012A01DD62
:102F60000220FAE70020F8E74801002034010020A1
:102F70009A5F0008B000002018140020A000002074
:102F8000A4000020040100200C01002014010020F6
:102F900010B50120FFF7DCFC01246D48046000201F
:102FA0006C49088008460088694908600020091DAE
:102FB00008604FF4E050674908800846008864497B
:102FC0000860002010BD10B5012061490860002094
:102FD000091D0860FFF7BCFC03205D490860002064
:102FE00010BD38B50025002000905948006884B213
:102FF00000BF09E0584901EB8500D0F8000C80B211
:10300000564941F825006D1C082DF3D344F4806423
:103010004F48046044F00104046024F0010404609B
:1030200000BF4B48001D006800F480600028F8D005
:103030004FF6FF304649091D0860002509E0474862
:1030400050F8250080B2444A02EB8501C1F8000C1B
:103050006D1C082DF3D344F008043D48046000685B
:1030600084B244F004043A480460FFF738FC38BDE9
:1030700010B53748006884B224F004043448046072
:10308000FFF731FC4FF43F403149086010BD70B587
:103090000546072D01D032480570314800780828D0
:1030A0004ED2DFE800F004111A202B384E4F2D4885
:1030B000006828B9FFF7DCFF06202949087002E004
:1030C00005202749087041E0FFF7D2FF042024497A
:1030D000087001202349086038E002202049487028
:1030E0000320087032E01E484078401E1C4948709A
:1030F0000846407808B90420087027E014480068A2
:1031000084B244F010041248046005201449087089
:103110000A2048701AE012484078401E1049487052
:103120000846407858B90A48006884B224F0100470
:10313000074804600620087000200A49086005E07E
:1031400000BF00BF06200649087000BF00BF70BD69
:10315000405C00405201002000500040F813002065
:10316000390100203C01002010B504462CB9012093
:10317000F64909680882002010BDF5490968086809
:103180008047F24800680A30F6E710B5EF4800685B
:10319000C078F0494978884213DCEC4800688078B0
:1031A00078B9EA480068808858B9E8480068C0786B
:1031B000E64909688872E64909684868804700203E
:1031C00010BD0220FCE710B504462CB90120DF49F0
:1031D00009680882002010BDDD49096888688047B9
:1031E000DA4800680C30F6E710B5D84B1B68D97880
:1031F000D64B1B685879D84B1B689A699047044690
:10320000D2480068807AE8B13CB9D04800680079BB
:1032100018B9CE480068807808B1022010BD8CB97A
:10322000CB490968C8688047C84800684079C749E1
:103230000968C872C5480068C078C449096808733D
:103240000020EBE70220E9E710B504462CB9022084
:10325000BE4909680882002010BD0020BF490880CF
:10326000BA480068007800F07F0018BBB7490968C9
:10327000487A00F0200131B1B849097841F00201E3
:10328000B64A117005E0B549097801F0FD01B34A6D
:10329000117000F0400131B1B049097841F00101ED
:1032A000AE4A117005E0AD49097801F0FE01AB4A64
:1032B00011703AE0A5480068007800F07F0001280E
:1032C00001D1A648C8E7A1480068007800F07F0057
:1032D000022828D19D4A1268517901F00F0001F0AF
:1032E00080027AB19E4B03EB8002D2F8002C02F0F0
:1032F0003002102A16D1994A127842F00102974BF7
:103300001A700FE0964B03EB8002D2F8002C02F407
:103310004052B2F5805F05D1904A127842F0010226
:103320008E4B1A7001E0002096E789490968086908
:1033300080478A4890E72DE9F04784480068007884
:1033400000F07F08B8F1000F0AD180480068407A89
:1033500000F0DF007D49096848720020BDE8F08771
:10336000B8F1020F7ED179480068408818B97748D3
:103370000068007908B10220F0E7DFF8D8917348BF
:103380000068477927F080052C467048006840792E
:1033900000F0800038B1724901EB8400D0F8000CD5
:1033A00000F0300606E06E4901EB8400D0F8000C16
:1033B00000F4405699F80000A84204D91EB16348B1
:1033C0000068807A08B90220C8E707F0800080B161
:1033D000634901EB8400D0F8000C00F030001028A5
:1033E0004BD1E0B201F02FF8E0B2302100F0B1FE95
:1033F00043E05B4901EB8400D0F8000C00F440503E
:10340000B0F5805F39D1E4B9564A92F82C10E0B299
:1034100001F0A3F8524A02EB8401D1F8001C4BF6EC
:103420008F7201EA020080F4805080F4005040F472
:10343000004141F080014A4B03EB8402C2F8001CBA
:103440001BE0E0B200F0E7FF454A02EB8401D1F84F
:10345000001C4BF68F7201EA020080F4805080F469
:10346000005000E00FE040F4004141F080013C4B8F
:1034700003EB8402C2F8001C00BF354909684869A3
:10348000804700206AE700BF022067E72DE9F0418E
:103490002E480068467926F080073C462B48006895
:1034A000407900F0800038B12D4901EB8400D0F85C
:1034B000000C00F0300506E0294901EB8400D0F84B
:1034C000000C00F4405523480078A04208D91F485A
:1034D0000068408820B91DB11C480068807A10B986
:1034E0000220BDE8F08106F08000A0B11C4A02EB8A
:1034F0008401D1F8001C48F6BF7201EA020080F096
:10350000100040F4004141F08001154B03EB8402B0
:10351000C2F8001C14E0124A02EB8401D1F8001C2E
:103520004BF68F7201EA020080F4805040F40041B3
:1035300041F080010A4B03EB8402C2F8001C00BF7B
:1035400003490968886980470020CAE748010020CC
:1035500054010020AC0000204C010020400100205C
:1035600000500040B000002010B5F7480068407AD5
:1035700040F02000F44909684872F4490968C869B4
:103580008047002010BD10B50246EF480068438A0E
:1035900032B98888C01AEC4C24682082002010BD03
:1035A00008681844FBE72DE9F041E748006800F19E
:1035B00010042688A068C0B1BEB1A588B54200D964
:1035C0003546A8B2A168884707462088401B20805E
:1035D000608828446080002000F091FF8046AAB2F5
:1035E0004146384600F050FD00BF208850B14FF4EE
:1035F0004050D74908800021084600F08CFF302059
:10360000D44908802088A188884204DB0320CE4961
:103610000968087218E02088002804DD0520CA49DE
:103620000968087210E0208870B90620C649096848
:1036300008720021C848006880B2801CC74A42F85E
:1036400010103020C3490880BDE8F0812DE9F04713
:10365000BD48006800F110052E88BB480068077A55
:10366000D6B9042F18D1BE48007801280FD1002107
:10367000B948006880B2801CB84A42F81010302067
:10368000B449088000BF0020B549087003E007274F
:103690001020B049088027E0AC88A64201D8042059
:1036A00000E002200746B44200D93446A0B2A9681F
:1036B00088478046002000F017FF8146A2B24946A5
:1036C000404600F0C7FCA1B2002000F024FF28888B
:1036D000001B288068882044688030209D4908802D
:1036E00000029B49088000BF974909680F72BDE836
:1036F000F08770B5022694480068447892480068C4
:10370000007800F07F00002844D1092C03D1FFF796
:103710003CFD06465FE0052C14D18B480068C0785C
:103720007F280BDC88480068807838B986480068B4
:10373000808818B984480068807A08B1082565E057
:10374000002648E0032C0ED17F480068C07801288D
:1037500007D17D480068808818B9FFF705FF064645
:1037600039E0022637E0012C35D177480068C0786F
:1037700001280DD174480068808848B972480068F3
:10378000407A00F0200018B1FFF7D5FD064622E090
:10379000022620E06C480068007800F07F000128D5
:1037A00005D10B2C17D1FFF71FFD064613E0664825
:1037B0000068007800F07F0002280BD1012C03D1B3
:1037C000FFF7B9FD064606E0032C04D1FFF75EFEC5
:1037D000064600E002264EB1E0B2624A1268516924
:1037E00088470646032E01D109250FE00EB10825B2
:1037F0000CE0062500215848006880B2801C574A1A
:1038000042F8101030205349088000BF4E49096823
:103810000D7270BD2DE9F84F4B48006845780027C0
:10382000BA46062D1BD148480068007800F07F009A
:10383000002813D1444909688878012803D14949EF
:103840000968CF690AE0022803D1464909680F6A6E
:1038500004E0032802D1434909684F6AADE0002D16
:1038600067D1394800684088002862D1364800682E
:10387000C08802285DD1344800680079002858D1FA
:1038800031480068007800F07F0030B92E480068A9
:10389000808810B9AFF24F678FE02B48006800783E
:1038A00000F07F00012811D12749096848792D4986
:1038B00009688A690021904700287ED12248006863
:1038C000807A002879D0AFF27F6776E01E480068E2
:1038D000007800F07F0002286FD11B480068407913
:1038E00000F00F0618480068407900F0700916488B
:1038F0000068407900F0800038B11B4901EB860078
:10390000D0F8000C00F0300806E0174901EB860003
:10391000D0F8000C00F4405814480078B0424CD95C
:10392000B9F1000F49D1B8F1000F46D0AFF2E76707
:1039300043E0082D1CD104480068007800F07F00A7
:10394000D8BBAFF2DB7738E04801002054010020FB
:10395000580100205A010020505C004000600040E7
:10396000420100204C01002000500040AC0000202B
:103970000A2D22D1C5480068007800F07F00012898
:103980001BD1C2480068807AB8B1C048006840883E
:1039900098B9BE480068007978B9BC480068C0880A
:1039A00001280AD1B94909684879B94909688A6979
:1039B0000021904708B9AFF2F17757B1B3480068DA
:1039C000A0F812A0B148006887610020B847002421
:1039D0000FE0AE4A12685078AD4A12681169884704
:1039E0000446032C05D10920A84909680872BDE8DE
:1039F000F88FA6480068008A4FF6FF71884204D10C
:103A00000920A24909680872F1E7022C03D09F48F7
:103A10000068008A20B908209C4909680872E6E716
:103A20009A480068007800F08000E0B3974800688A
:103A3000C088009095480068008A0099884204D99F
:103A4000924900980968088223E090480068008A3B
:103A50008E490968C98888421BDA8C480068008A48
:103A60008B49096891F82C10884203DA00208949B3
:103A700008700EE085480068008A8549096891F859
:103A80002C1090FBF1F201FB120010B901208149CA
:103A900008707F48006890F82C107C48006881828C
:103AA000FFF7D4FD07E0FFE70320784909680872B3
:103AB00000037949088000BF99E710B5774890F86E
:103AC0002C10002000F049FD70480068007A08289A
:103AD00005D14002704908801020714908806B4868
:103AE0000068007A092801D1012010BD0020FCE700
:103AF00038B501246B48006880B2001D6A4931F86E
:103B0000100080B201EB4000009060480068007A2D
:103B1000092832D0009800785C490968087000983C
:103B2000401C009000980078584909684870009837
:103B3000401C0090009800EB44000090009931F880
:103B4000020B009100F0B2FE5049096848800098CD
:103B500000EB44000090009931F8020B009100F056
:103B6000A5FE4A4909688880009800EB440000904F
:103B70000098008845490968C880012043490968C0
:103B8000087242480068C08810B9FFF7B2FD01E032
:103B9000FFF740FEFFF791FF38BD30B50146434BBC
:103BA0001A78002014E00306414C04EB9353D3F839
:103BB000003C48F68F74234048F280042343C4B28B
:103BC000234304063A4D05EB9454C4F8003C401CD2
:103BD0009042E8D341F08003324C241F236030BD73
:103BE00010B52A480068047A022C01D0042C05D1B3
:103BF000FFF72CFD25480068047A1CE0062C19D13B
:103C000022480068407805280ED1204800680078D6
:103C100000F07F0040B91D490968C878FFF7BDFF73
:103C200024490968086A80471949096888688047F3
:103C3000082400E00824154909680C72FFF73DFFCD
:103C400010BD10B511480068047A022C01D0042C74
:103C500001D1082412E0032C01D0052C05D1FFF777
:103C6000A2FC0A480068047A08E0072C05D108493C
:103C70000968C8688047082400E0082403490968E7
:103C80000C72FFF71AFF10BD7047000048010020BA
:103C90004C0100204201002058010020B00000200B
:103CA0005A010020505C004000600040AC00002041
:103CB000005000405401002010B54FF4FA70FCF79A
:103CC000D2FE0020FEF745FE4FF4FA70FCF7CBFE63
:103CD0000120FEF73EFEFEF7F9FDFEF70FFE084855
:103CE0000849086002200968087207480749086007
:103CF000074808490860054909680868804710BDF9
:103D00001814002048010020B00000204C010020C1
:103D1000E00000205401002008B50020009022E1BE
:103D2000C448008800F00F00C349087008460078B6
:103D300000287CD1C1480068C14908800846008835
:103D400000F03000BF490880BD48008800F44050B2
:103D5000BB490880B94909684BF6BF7201EA020005
:103D600080F4005080F0200040F4004141F08001D8
:103D7000B24A1160AF48008800F0100090BB1046B6
:103D8000006848F60F71084011460860FFF728FFE9
:103D9000AA4909684BF6BF7201EA0200A8490988DE
:103DA00001F4805109B180F48050A549098801F4DB
:103DB000005109B180F40050A249098801F01001B6
:103DC00009B180F010009F49098801F0200109B174
:103DD00080F0200081B241F4004141F08001974A17
:103DE000116008BDFFE79548006880B20090BDF8FB
:103DF000000000F40060B0B390480068C0F30E000B
:103E000048F68F7108408D490860FFF771FE8B49B5
:103E100009684BF6BF7201EA02008949098801F47A
:103E2000805109B180F480508549098800E056E04E
:103E300001F4005109B180F400508249098801F071
:103E4000100109B180F010007E49098801F02001BD
:103E500009B180F0200081B241F4004141F08001BD
:103E6000764A1160BDE7FFE7BDF8000000F40040AE
:103E7000002878D071480068C0F30E0048F68F71B2
:103E800008406E490860FFF7DCFE6C4909684BF694
:103E9000BF7201EA02006A49098801F4805109B140
:103EA00080F480506649098801F4005109B180F41A
:103EB00000506449098801F0100109B180F0100038
:103EC0006049098801F0200109B180F0200081B229
:103ED00041F4004141F08001584A116081E75648A1
:103EE0000078594901EB8000D0F8000C80B20090B6
:103EF000BDF8000000F40040C0B14F48007801EB6D
:103F00008000D0F8000CC0F30E0048F68F71084016
:103F1000494909784C4A02EB8101C1F8000C464935
:103F20000978491E494A52F821008047BDF800002F
:103F300000F08000B8B140480078434901EB8000B0
:103F4000D0F8000C48F60F7108403B4909783E4A0A
:103F500002EB8101C1F8000C37490978491E3C4A3F
:103F600052F82100804735484430006880B231491A
:103F7000088000F4004000287FF4D2AE00BF30E794
:103F800010B500244AE047F6FF702C494431086020
:103F90002848008800F00F0027490870084600787C
:103FA000294901EB8000D0F8000C84B204F40040F1
:103FB000C8B12148007801EB8000D0F8000CC0F3B4
:103FC0000E0048F68F7108401B4909781E4A02EB23
:103FD0008101C1F8000C18490978491E1B4A52F8A2
:103FE000210080471AE004F08000B8B11248007840
:103FF000154901EB8000D0F8000C48F60F7108401D
:104000000D490978104A02EB8101C1F8000C0A49F8
:104010000978491E0E4A52F821008047074844306B
:10402000006880B20349088000F400400028AAD14B
:1040300010BD00005C00002044010020005C004036
:10404000580100205A010020005000408400002048
:1040500068000020F0B5144604F1010C4FEA6C072B
:10406000DFF848C00CEB41033D460AE00678401CEF
:1040700090F800C046EA0C2223F8022B9B1C401C3F
:104080006D1E002DF2D1F0BDF0B5561C7510074E17
:1040900006EB41042B4605E034F8047B20F8017B55
:1040A000401C5B1E002BF7D1F0BD000000600040FB
:1040B000FA4908607047F948006880B27047F749CC
:1040C000091D08607047F548001D006880B2704700
:1040D000F2480830006880B27047F0490C3108603F
:1040E0007047EE480C30006880B270474FF6F871A8
:1040F0000140EA4A103211607047E8481030006809
:1041000080B27047E64B03EB8002C2F8001C704798
:104110000146E34A02EB8100D0F8000C80B2704700
:1041200010B5DF4B03EB8002D2F8002C48F68F135A
:104130001A400A43DA4C04EB8003C3F8002C10BD8C
:104140000146D74A02EB8100D0F8000C00F4C060B1
:10415000704730B5D24C04EB8003D3F8003C48F6EE
:10416000BF7403EA040201F010030BB182F01002E5
:1041700001F020030BB182F0200242F4004343F02F
:104180008003C74D05EB8004C4F8003C30BD30B55A
:10419000C34C04EB8003D3F8003C4BF68F7403EA66
:1041A000040201F480530BB182F4805201F40053F5
:1041B0000BB182F4005242F4004343F08003B84D47
:1041C00005EB8004C4F8003C30BD30B503460C4616
:1041D0001846FFF79DFF0546012C07D125F48050B6
:1041E000AF4A02EB8301C1F8000C08E0022C06D1B3
:1041F00025F01000AA4A02EB8301C1F8000C30BD83
:104200000146A74A02EB8100D0F8000C00F0300014
:1042100070470146A24A02EB8100D0F8000C00F47E
:104220004050704710B59E4B03EB8002D2F8002C33
:1042300048F6BF7302EA030181F0100181F020010A
:1042400041F4004242F08002954C04EB8003C3F835
:10425000002C10BD10B5924B03EB8002D2F8002C5D
:104260004BF68F7302EA030181F4805181F400510F
:1042700041F4004242F08002894C04EB8003C3F811
:10428000002C10BD864A02EB8001D1F8001C41F4DD
:10429000807148F68F72114048F280021143804BC2
:1042A00003EB8002C2F8001C70477D4A02EB8001DC
:1042B000D1F8001C48F68F62114048F28002114389
:1042C000774B03EB8002C2F8001C7047744A02EB84
:1042D0008001D1F8001C48F68F62114048F280023C
:1042E00011436F4B03EB8002C2F8001C70476C4A0D
:1042F00002EB8001D1F8001C41F4807148F68F7206
:10430000114048F280021143654B03EB8002C2F872
:10431000001C7047624A02EB8001D1F8001C41F496
:10432000807148F68F72114048F2800211435C4B55
:1043300003EB8002C2F8001C7047594A02EB80016F
:10434000D1F8001C48F68F62114048F280021143F8
:10435000534B03EB8002C2F8001C70470146504AE1
:1043600002EB8100D0F8000C00F03000102801D1E1
:10437000012070470020FCE70146494A02EB81001A
:10438000D0F8000C00F44050B0F5805F01D101205E
:1043900070470020FCE7424A02EB8001D1F8001C84
:1043A000C1F30E0148F68F7211403D4B03EB8002C2
:1043B000C2F8001C70473A4A02EB8001D1F8001C99
:1043C00048F60F721140364B03EB8002C2F8001C16
:1043D0007047334A02EB8001D1F8001C48F68F7217
:1043E00011404CF2800211432D4B03EB8002C2F8C6
:1043F000001C70472A4A02EB8001D1F8001C48F6E5
:104400008F72114048F2C0021143254B03EB80022A
:10441000C2F8001C7047224A02EB8001D1F8001C50
:1044200001F4804171B102EB8001D1F8001C48F623
:104430008F7211404CF280021143194B03EB800242
:10444000C2F8001C7047164A02EB8001D1F8001C2C
:1044500001F0400171B102EB8001D1F8001C48F677
:104460008F72114048F2C00211430D4B03EB8002E2
:10447000C2F8001C704710B5094B03EB8002D2F85C
:10448000002C48F68F731A4048F280031A430A43FF
:10449000034C04EB8003C3F8002C10BD405C0040CB
:1044A000005000400146FC4A02EB8100D0F8000CAD
:1044B00000F00F00704710B54A105200F74B1B6810
:1044C0009BB203EBC003F64C44F8132010BD10B5AB
:1044D0004A105300F14A126892B202EBC002121D58
:1044E000EF4C44F8123010BD0146EC48006880B231
:1044F00000EBC100EA4A32F8100080B27047014672
:10450000E648006880B200EBC100001DE44A32F8C2
:10451000100080B27047E14A126892B202EBC0020A
:10452000921CDF4B43F81210704702463E290BDD08
:10453000481101F01F030BB9431E98B24FF400431A
:1045400043EA8023136007E0481001F001030BB138
:10455000431C98B283021360704710B50246CF48DF
:10456000006880B200EBC200801DCD4C04EB40031C
:104570003E290BDD481101F01F040CB9441EA0B206
:104580004FF4004444EA80241C6007E0481001F026
:1045900001040CB1441CA0B284021C6010BD014691
:1045A000BE48006880B200EBC100801CBC4A32F8F3
:1045B0001000C0F3090070470146B848006880B297
:1045C00000EBC100801DB64A32F81000C0F30900AC
:1045D000704730B54B105B00B04C2468A4B204EBBC
:1045E000C004AF4D45F8143053105C00AB4B1B6852
:1045F0009BB203EBC0031B1D45F8134030BD10B543
:104600004A105200A54B1B689BB203EBC003A44C9D
:1046100044F8132010BD10B54A1053009F4A126889
:1046200092B202EBC002121D9D4C44F8123010BD34
:1046300001469A48006880B200EBC100984A32F8FF
:10464000100080B2704701469448006880B200EBC9
:10465000C100001D924A32F8100080B2704730B598
:104660000B46012B1FD18D49096889B201EBC001AE
:10467000891C8B4D05EB41043E2A0BDD511102F0E4
:104680001F050DB94D1EA9B24FF4004545EA81251D
:10469000256007E0511002F001050DB14D1CA9B2D3
:1046A0008D0225600AE0022B08D17C49096889B295
:1046B00001EBC001891C7A4C44F81120012B1FD159
:1046C0007649096889B201EBC001891D744D05EB7B
:1046D00041043E2A0BDD511102F01F050DB94D1E9C
:1046E000A9B24FF4004545EA8125256007E0511045
:1046F00002F001050DB14D1CA9B28D0225600AE042
:10470000022B08D16549096889B201EBC001891DF6
:10471000634C44F8112030BD30B5034601291FD148
:104720005E48006880B200EBC300801C5C4D05EB66
:1047300040043E2A0BDD501102F01F050DB9451E45
:10474000A8B24FF4004545EA8025256007E05010E7
:1047500002F001050DB1451CA8B2850225600AE0F2
:10476000022908D14D48006880B200EBC300801CCC
:104770004B4C44F8102030BD30B5034601291FD101
:104780004648006880B200EBC300801D444D05EB35
:1047900040043E2A0BDD501102F01F050DB9451EE5
:1047A000A8B24FF4004545EA8025256007E0501087
:1047B00002F001050DB1451CA8B2850225600AE092
:1047C000022908D13548006880B200EBC300801D83
:1047D000334C44F8102030BD01463048006880B2A8
:1047E00000EBC100801C2E4A32F81000C0F3090013
:1047F000704701462948006880B200EBC100801D67
:10480000274A32F81000C0F30900704701462348D8
:10481000006880B200EBC100801D214A32F8100010
:1048200000F47C4008B1012070471C48006880B249
:1048300000EBC100801C1A4A32F81000C0F30900D6
:1048400008B10220F0E70020EEE710B5012910D1F1
:10485000114B03EB8002D2F8002C48F68F731A40FC
:1048600048F2C0031A430C4C04EB8003C3F8002C3D
:1048700011E002290FD1084B03EB8002D2F8002C83
:1048800048F68F731A404CF280031A43024C04EB33
:104890008003C3F8002C10BD00500040505C004065
:1048A00000600040024641EA022070470146CAB259
:1048B0000B1243EA0220704700201D4908604FF4A4
:1048C0003F401C490880084600881949091F0860B4
:1048D000002070472DE9F04104460E46154604F0CD
:1048E0007F00FFF701FE0746AAB239463046FFF7C0
:1048F000B1FBA9B204F07F00FFF70DFE0020BDE878
:10490000F0812DE9F04104460E46002504F07F00B9
:10491000FFF752FE054604F07F00FFF7F0FD074663
:104920002A4639463046FFF7AFFB2846BDE8F081FE
:10493000445C0040520100201CB50C46064B7B44F1
:1049400069460090204600F0E2F8044600206946DF
:1049500000F0F0F820461CBDF301000010B5431C28
:1049600002E010F8011B71B18107FAD14FF001325A
:1049700002C88C1A8C4314EAC211F9D0C01A0A0674
:1049800003D0C01E10BDC01A10BD0A0401D0801E85
:1049900010BD0902FCD0401E10BD70477047704723
:1049A00070B5044685690068C10601D5302600E06F
:1049B0002026C00707D070BDD4E9012130469047BA
:1049C000206A401C20626D1EF6D570BD70B504468D
:1049D00085690078C00707D170BDD4E90121202086
:1049E0009047206A401C20626D1EF6D570BD096894
:1049F0004A0501D540B27047C905FCD500B27047E1
:104A000009684A0501D5C0B27047C905FCD580B216
:104A1000704770B50C460546012A05D028788006F7
:104A200000D5EA69002302E0012305E05B1C934204
:104A300002D2E05C0028F9D1A869E618C01AA86182
:104A4000286A184428622846FFF7AAFF04E0D5E93F
:104A5000012114F8010B9047B442F8D32846FFF720
:104A6000B5FF70BD2DE9F041064600241068752998
:104A7000314616A510D0FFF7BAFF002802DA4042EF
:104A800013A507E031688A0701D512A502E049079E
:104A900004D511A5012401E0FFF7B2FF00210A228D
:104AA00006F1240709E0B0FBF2FCB0FBF2F302FBD5
:104AB0001C00303078541846491C0028F3D1234696
:104AC0002A463046BDE8F04100F061BA000000001F
:104AD0002D0000002B00000020000000116802687B
:104AE000006A530501D508700AE0D30501D5088096
:104AF00006E0130603D5C217C1E9000200E0086012
:104B00000120704701694A1C02610878704700B5AE
:104B10008FB0CDE901310021059105497944CDE9F6
:104B200003101146684600F029F90FB000BD0000DF
:104B3000E5FFFFFF0A6802F8010B0A6070470000FA
:104B40002DE9FF5F15468A460446DFF8AC80F8443D
:104B50000027D8E900103E46CDE9001010E03AF8F1
:104B600016106A4602A800F0A6FC411C07D0217866
:104B7000890603D5E269391891420DD80744761C9D
:104B80002078800602D5E069B84205DDAE42E6DB5A
:104B90003AF816000028E2D1A069C01BA0612046A7
:104BA000FFF7FEFED8E90010CDE90010002017E065
:104BB0003AF818106A4602A800F07DFCB0F1FF3FF9
:104BC00081460BD000250DF1080B05E0D4E9012149
:104BD0001BF8050090476D1C4D45F7D308F1010007
:104BE000B0428046E4DB206A384420622046FFF76A
:104BF000EDFEBDE8FF9F0000EA1400002DE9F04142
:104C00008046D21D22F007020025D2E90002F529D4
:104C100015A614D0011E72F1000106DA0023D0EBB4
:104C2000030063EB020211A608E0D8F800108B071E
:104C300001D50FA602E0490701D50EA601251146B0
:104C4000002408F1240704E000F05CF930323A5502
:104C5000641C50EA0102F7D12B46324621464046F9
:104C6000BDE8F04100F093B9000000002D00000005
:104C70002B0000002000000030B4002100F12404CB
:104C800008E002F00705D208303542EA4372DB083B
:104C90006554491C52EA0305F3D10468002310A2AD
:104CA000250707D5A40600D421B1C46901230DA2AC
:104CB000641EC46130BC00F06AB910B504462146D8
:104CC0001068FFF79DFE02462046BDE81040002315
:104CD000D2E7D21D22F00701D1E90023CCE7000082
:104CE0000000000030000000F0B40D460188090506
:104CF00002D5214C7C4402E01F4C7C440E34002140
:104D000000F1240608E002F00F071209E75D42EA0D
:104D100003721B097754491C52EA0307F3D1027846
:104D20000023120704D5702D06D009B102231134D7
:104D30002246F0BC00F02BB901231034F8E770B51F
:104D400004460D4621461068FFF75AFE02462946E2
:104D50002046BDE870400023C6E7D21D22F00703BD
:104D6000D3E90023C0E70368126843F0200303601F
:104D70000823C3610023B7E74C1300002DE9F05F5F
:104D8000894604464FF0000ADFF874B1FB44C0F8CE
:104D900020A02046E1688847002874D0252806D046
:104DA000D4E901219047206A401C2062F1E70026E7
:104DB0005F462046E16888472028054607DB312DFD
:104DC00005D2781910F8200C08B10643F1E7B007B6
:104DD00001D526F00406C4F81CA00027C4F818A0CA
:104DE0002A2D09D0284601F09AF838B304EB870839
:104DF000303DC8F8185019E059F8041B204604EB60
:104E000087029161E1688847012F054618D1E06962
:104E1000002820DA26F020061DE0D8F8180000EB64
:104E2000800005EB40003038C8F818002046E168E3
:104E30008847054601F073F80028EED1012F0AD00B
:104E40002E2D08D12046E16888477F1C0546022F99
:104E500046F02006C4DBA069002803DA404246F091
:104E60000106A061F00701D026F010066C2D0BD0D2
:104E7000682D09D04C2D39D06A2D35D0742D35D000
:104E80007A2D33D016E038E0E1682F462046884777
:104E9000B842054609D16C2F26D04FF48060E168F6
:104EA000064320468847054604E06C2F1AD04FF48D
:104EB000807006430DB3A5F14100192802D82035B2
:104EC00046F400664A462946204626604E46FBF7D1
:104ED00089F980B101280BD0F61D26F0070000F1FA
:104EE000080956E74020E4E78020D8E70020D6E70D
:104EF00006F104094DE7284652E7206ABDE8F09F15
:104F0000DC12000030B5B0F10A024FEA900E71F1E8
:104F100000034EEA817EB0EB0E0061EB91014FEA97
:104F2000101E4EEA017E10EB0E0041EB11114FEA0C
:104F3000102E4EEA016E10EB0E0041EB11214FEAEC
:104F4000104E4EEA014E10EB0E0041EB114140189D
:104F500041F100014FEAD00040EA41704FEAD1012F
:104F600010EB80054FEA810444EA907444EB01049D
:104F70006D1944EB0404521BA3414FF0000348BFDA
:104F80000A3200D530BD401C41F1000130BD2DE991
:104F9000F0470D4699469246044600F12408016800
:104FA000880604D5E06921F01001216000E00120AD
:104FB000A84201DD471B00E00027A1697A1902EB36
:104FC0000900081AA0612078C00602D42046FFF725
:104FD000E7FC002608E0D4E901211AF80600904712
:104FE000206A401C761C20624E45F4DB2078C00607
:104FF0000AD52046FFF7D4FC06E0D4E90121302091
:105000009047206A401C2062381EA7F10107F4DC9B
:1050100007E0D4E9012118F805009047206A401CF8
:105020002062281EA5F10105F3DC2046FFF7CEFC27
:105030002078000602D50220BDE8F0870120FBE7BA
:1050400070472DE9FF4F0C461E464FF0FF378BB0DF
:10505000D2E90001DDF860800A908A46C1F30A5562
:1050600005B93D46002108464FF00000BAF1000F97
:1050700000F4400005DA00EB80004FF4400101EA43
:1050800050004FEA9059B9F1010F00DDB9460A9876
:1050900050EA4A000ED044F61050A5F2FF354543C1
:1050A0002F14B8F1000F1ED07542291E1EDDC9F164
:1050B00000021CE0B8F1010F4FF0000001D03021D8
:1050C00003E0F24305E02154401CB042FBDB3046D4
:1050D0000022002121540B99C1F80880C1E9002069
:1050E0000FB0BDE8F08FBD1B6D1CDEE74A4600DA4D
:1050F000694206A800F070FA06AB93E8070003AB1C
:1051000083E8070050460A9900F02DFB8DE8070060
:10511000A0F500501F3800900398002D0ADD42F2E0
:105120001F014A460844002303A90390684600F083
:1051300096FD09E0A0F500504A461F38002303A958
:105140000390684600F0A0FD8DE807000004000C05
:1051500003D04FF0FF30410800E01046B8F1000FD7
:1051600003D00022009215461EE0751E05D4FFF7FD
:10517000C9FE303262556D1EF9D5B346012208438F
:1051800002D000227F1C04E02078302801D10022C8
:105190007F1E002A099784D01DE0112D07DAFFF742
:1051A000B1FE303262556D1C50EA0102F5D1084360
:1051B00002D00098C8B10EE00021681E05E0235C13
:1051C000625C63542254401E491C8142F7DBAB46AB
:1051D000A81B401E0990002004F80B000B98099AA8
:1051E000C0F80880C0E9002B7AE711264FF00008CC
:1051F00057E72DE9F04F88460446D21D22F00701FB
:1052000091B0D1E90001CDE90A0100F074FE024637
:105210000B98C00F01D02D2007E02068810701D531
:105220002B2002E0202101EAC000032A099001D0CE
:10523000072A05DB03464146204600F08DF90BE1C5
:105240002078800601D5E06900E00620B8F1650FFE
:10525000814606D0B8F1660F18D0B8F1670F70D14B
:1052600031E00020B9F1110F009001DB112301E0C2
:1052700009F101030AAA01A90CA8FFF7E2FEDDE982
:105280000C70002609F10105834647E001204B46DA
:1052900000904FF000470AAA01A90CA8FFF7D1FE21
:1052A000DDE90DB00C995D46002610B909F1010049
:1052B0000D18B9EB050003D4C0F1FF3609F1010563
:1052C000A5EB09002BE0B9F1010F01DA4FF001095C
:1052D0000020B9F1110F0090484601DD112300E0D4
:1052E00003460AAA01A90CA8FFF7ABFEDDE90C7082
:1052F0004D4600268346207800070AD4AB4500DAE5
:105300005D4601A8012D04DD411911F8011C302969
:1053100007D04F4502DA17F1040F04DA0120824664
:105320000FE06D1EEEE7002F02DCED1B3E4403E0B4
:10533000781CA84200DD7D1CB81B00F1010A4FF06B
:1053400000472078000703D4AA4501DB4FF0FF3A5D
:105350000021B7F1004F0DF143088DF8431024D020
:1053600002202B23002F01DA7F422D230A21021E67
:10537000A0F1010000DC5FB197FBF1FC97FBF1F2BB
:1053800001FB1C7C17460CF1300C08F801CDEEE750
:10539000A8F1010003702188090501D5452100E02D
:1053A0006521A0F1010800F8011C09980FA9A1EBE3
:1053B0000807FF1D00B10120411901EBEA70A16946
:1053C0003844081A401EA0612078C00602D4204646
:1053D000FFF7E6FA099828B1D4E901219047206A3D
:1053E000401C20622078C00622D52046FFF7D8FA5C
:1053F0001EE0002E04DBB34502DD01A8805D00E065
:105400003020D4E901219047206A401C2062761C9C
:10541000AAF101005FEA000A0AD100F099F8C06819
:105420000168405CD4E901219047206A401C206259
:10543000281EA5F10105DCDC07E0D4E9012118F8FC
:10544000010B9047206A401C2062381EA7F101071B
:10545000F3DC2046FFF7BAFA032011B041E610B59D
:10546000436913B1AFF3008001E0FFF7D2FA0120E6
:1054700010BD127800F124010A7000224A70012246
:10548000EDE711684FF0FF32E9E710B5436913B15A
:10549000AFF3008001E0FFF753FB012010BD12883D
:1054A00000F1240182840022C2840122EDE7116808
:1054B0004FF0FF32E9E770B516460C46054600F09E
:1054C0003FF8036893F80101012806D0FF2C0FD89C
:1054D000185D68B101202C7070BDD3F80701324609
:1054E000214603F2071303442846BDE870401847DD
:1054F0004FF0FF3070BD754600F0EAF8AE4605008B
:105500006946534620F00700854618B020B5FBF7E2
:10551000E5FABDE820404FF000064FF000074FF0DD
:1055200000084FF0000B21F00701AC46ACE8C009C1
:10553000ACE8C009ACE8C009ACE8C0098D467047CA
:1055400010B500F005F8001D10BD00BF0D0A0000E9
:1055500000487047541400202DE9F0411F460446CE
:1055600003260168072A01F4006004DB08B116A5D0
:1055700005E016A503E008B115A500E015A521F08A
:1055800010002060A069C01EA0610FB1401EA06184
:105590002046FFF705FA4FB1D4E90121384690477C
:1055A000206A401C2062C01C206206E0206AFAE7E4
:1055B000D4E9012115F8010B9047761EF8D2204658
:1055C000FFF704FABDE8F0814E414E006E616E00B7
:1055D000494E4600696E66002DE9F0478146164641
:1055E0008AB0354878440DC88DE80D0032487844BB
:1055F000801C03AC0DC884E80D0041F69B300844C4
:10560000372190FBF1F290FBF1F5A5F1800501FB4C
:1056100012041B3C02D56442012000E00020DFF8A8
:1056200098A080460027FA44AAF1BE0A0EE0E007DF
:105630000AD03246684607EB470101230AEB810195
:1056400000F022FB8DE8070064107F1C002CEED1D7
:10565000194F7F44AE3F19E0E80715D007EB04105F
:105660000DF1180A90E80E008AE80E00C068F042BA
:1056700001D1981908903246012306A903A800F029
:1056800003FB03AB83E807006D10641C002DE3D11E
:105690004FF0010332466946B8F1000F03A802D06B
:1056A00000F0DDFA01E000F0EFFAC9E90001C9F805
:1056B00008200AB0BDE8F087140B000010B50446BE
:1056C000AFF300802046BDE81040FAF7EEBD0000C1
:1056D00000487047341400204FF0013C50F8042B70
:1056E00051F8043B9A4221D1A2EB0C03934313EAF5
:1056F000CC1317D150F8042B51F8043B9A4215D122
:10570000A2EB0C03934313EACC130BD150F8042BF8
:1057100051F8043B9A4209D1A2EB0C03934313EADC
:10572000CC13DBD04FF00000704700BFD01A01BA95
:10573000B1FA81F101F0180122FA01F0CB40C1F178
:105740002001DBB2C0B2C01A2CFA01F3D11A914386
:1057500011EAC311E6D1704701491820ABBEFEE73C
:105760002600020070475FEA400C08BF91F0000F6E
:105770004FEA8C234FEAC12243EA51514FEA1C50B1
:1057800018BF00F5F0404FEA300018BF41F000416B
:105790005FEA6C5C00F02980BCF1FF3F08BF40F07D
:1057A00080407047130C06BF12044FF0100C4FF0EE
:1057B000000C130E04BF12020CF1080C130F04BFEF
:1057C00012010CF1040C930F04BF92000CF1020CB7
:1057D000D30F04BF52000CF1010C11464FF0000230
:1057E000A0F11F00A0EB0C00704711F0004F08BFA4
:1057F000704731F000413FF4D5AF0B0C06BF0904F0
:105800004FF0100C4FF0000C0B0E04BF09020CF10E
:10581000080C0B0F04BF09010CF1040C8B0F04BF23
:1058200089000CF1020CCB0F04BF49000CF1010CF4
:10583000CCF12003A0EB0C0022FA03F302FA0CF2E5
:1058400041EA030100F10100704720F07F4C80EA3B
:10585000030023F07F47ACEB070303F57C5300F014
:10586000004003F1FF032DE980494FEA154B09B4CD
:105870004FEA144325EA0B4E24EA03480FF20426AC
:1058800006EB132749083E785FEA320203FB0667FE
:10589000C7F5000707FB06F64FEA54374FEAD6462E
:1058A00006F1020607FB066CCCF1005C4FEA1C47D0
:1058B0002CEA074C07FB06F40CFB06F504EB154637
:1058C0004FEA961634BF00204FF000404FEAD13720
:1058D00006FB07FC4FEA1C4C0CFB0BF7D21B03FB2F
:1058E0000CF761EB07010CFB0EF7B0EB074072EB16
:1058F00017420CFB08F734BFA2EB0742B2EB07429A
:1059000061EB17414FEA0C444FEA910706FB07FC95
:105910004FEA1C4C0CFB0BF7B0EBC74072EB573255
:1059200003FB0CF734BFA2EBC742B2EBC74261EBFB
:1059300057310CFB0EF7B0EBC70072EB57720CFB44
:1059400008F734BFA2EBC702B2EBC70261EB577195
:10595000039F4FEA816141EA921104EBCC044FEAC4
:10596000D1374FEA826206FB07FC42EA90124FEA07
:1059700080604FEA1C4C0CFB0BF7D21B03FB0CF7AF
:1059800061EB07010CFB0EF7B0EB074072EB17421F
:105990000CFB08F734BFA2EB0742B2EB074261EB06
:1059A00017414FEA8C554FEA910704EB9C2406FB04
:1059B00007FC4FEA1C4C0CFB0BF7B0EBC74072EB3B
:1059C000573203FB0CF734BFA2EBC742B2EBC7421E
:1059D00061EB57310CFB0EF7B0EBC70072EB57725F
:1059E0000CFB08F734BFA2EBC702B2EBC70261EBB6
:1059F000577115EB4C254FEA816141EA92114FEA4C
:105A000082624FEAD13742EA901206FB07FC44F16A
:105A100000044FEA80604FEA1C4C0CFB0BF7D21BD2
:105A200003FB0CF761EB07010CFB0EF7B0EB074033
:105A300072EB17420CFB08F734BFA2EB0742B2EB44
:105A4000074261EB174115EB1C154FEA813141EA22
:105A500092414FEA823242EA90424FEA80304FEA66
:105A60000C7644F1000448EA03434EEA0B484FF039
:105A7000000EB2EB080C71EB030724BF62463946F7
:105A80004EEB0E0E4FF0000B0018524149414BEB0C
:105A90000B0BB2EB080C71EB03077BF1000B24BF7F
:105AA000624639464EEB0E0E4FF0000B0018524185
:105AB00049414BEB0B0BB2EB080C71EB03077BF18D
:105AC000000B24BF624639464EEB0E0E51EA020728
:105AD00018BF46F0010616EB0E7655F1000254F1A0
